:1000000051C000006BC0000069C0000067C0000064
:1000100065C0000063C0000061C000005FC0000058
:100020005DC000005BC0000059C0000072C300004A
:1000300055C0000053C000000C94D7084FC000000A
:100040004DC000004BC0000092C0000048C000003E
:1000500045C0000043C0000041C000003FC0000098
:100060003DC000003BC000004E414E494E4954592E
:10007000494E46CDCCCC3D0AD7233C17B7D1387773
:10008000CC2B329595E6241FB14F0A000020410089
:1000900000C84200401C4620BCBE4CCA1B0E5AAED3
:1000A000C59D740011241FBECFEFD8E0DEBFCDBFC9
:1000B00016E0A0E0B1E0EAEFFFE102C005900D928A
:1000C000A632B107D9F728E0A6E2B6E001C01D923A
:1000D000AB39B207E1F762D60C94FB0F91CF1F92B8
:1000E0000F920FB60F9211242F933F934F935F936C
:1000F0008F939F93AF93BF93EF93FF93E4E9F8E05F
:10010000918180819817F9F091818081981301C0C5
:10011000FFCFE4E9F8E08181A381B481A80FB11D8C
:100120009C918181482F50E0228130E0215031099B
:100130004217530711F08F5F01C080E0809395084C
:100140009093C60005C0E1ECF0E080818F7D808354
:10015000FF91EF91BF91AF919F918F915F914F91DF
:100160003F912F910F900FBE0F901F9018951F92E7
:100170000F920FB60F9211242F933F934F935F93DB
:100180006F937F938F939F93AF93BF93EF93FF935F
:100190009091C600ECE8F8E041818081682F70E022
:1001A000228130E0215031096217730711F08F5F0F
:1001B00001C080E0481301C0FFCFECE8F8E0808187
:1001C000A381B481A80FB11D9C938081482F50E07A
:1001D000228130E0215031094217530711F08F5F1F
:1001E00001C080E080938C08FF91EF91BF91AF91A7
:1001F0009F918F917F916F915F914F913F912F913F
:100200000F900FBE0F901F9018952F923F924F9214
:100210005F926F927F928F929F92AF92BF92CF9296
:10022000DF92EF92FF920F931F93CF93DF93CDB79F
:10023000DEB760970FB6F894DEBF0FBECDBF6983FF
:100240007A838B839C832D833E834F83588723E05F
:10025000E216F104E9F04CF481E0E816F10471F0E3
:1002600092E0E916F10479F021C0E4E0EE16F10421
:10027000A1F0F5E0EF16F104A9F018C02CE135E08B
:100280003E872D8713C08CE194E09E878D870EC03A
:10029000ECE1F3E0FE87ED8709C02CE131E03E8719
:1002A0002D8704C08CE192E09E878D8710925906BD
:1002B00010924D06CA94CD2809F00CC120909108E7
:1002C00030909208C101B8010E94DC0C709358066E
:1002D00060935706C0908708D0908808E0908908FE
:1002E000F0908A08B801012E000C880B990B0E942F
:1002F000C50B4B015C016091020170910301072E57
:10030000000C880B990B0E94C50B2B013C01E0915E
:100310005706F0915806F88BEF87A5019401C701A5
:10032000B6010E942A0B69877A878B879C872F8565
:100330003889B901330F880B990B0E94C50B9B01BB
:10034000AC0169857A858B859C850E94C10A9B01D9
:10035000AC0160E070E080E89FE30E94C10AA30165
:1003600092010E94790C0E94920B70935106609347
:100370005006C801B1010E94DC0C70935E086093C6
:100380005D0880915D0890915E089A878987A70132
:100390009601C501B4010E942A0B6B017C01E9851D
:1003A000FA85BF01FF0F880B990B0E94C50B9B01BB
:1003B000AC01C701B6010E94C10A9B01AC0160E01B
:1003C00070E080E89FE30E94C10AA30192010E94AD
:1003D000790C0E94920B70934F0660934E0620E0BA
:1003E00030E040E450E469817A818B819C810E94F5
:1003F0002A0B4B015C0129813A814B815C8160E0D1
:1004000070E080E490E40E94C10A20E030E04EEF0A
:1004100052E40E94790C20E030E040E450E40E9475
:100420002A0B2B013C0120E030E040E450E46D81D8
:100430007E818F8198850E942A0B20E030E04EEF6C
:1004400052E40E94790C69837A838B839C830D85A7
:100450001E852AE537E00F2EFAE5EF2EF8E0FF2E95
:10046000F02DDD24DA943E832D83F80161918F0114
:1004700070E080E090E00E94C50BA50194010E940D
:10048000790CA30192010E94C20A29813A814B8111
:100490005C810E94C10A0E94920B862F972F8F3F8A
:1004A000910529F024F0ED81FE81D08209C09923C5
:1004B00024F4ED81FE81108203C0ED81FE81608312
:1004C0002D813E812F5F3F4F3E832D832E153F05AB
:1004D00061F606C12090910830909208C101B801E0
:1004E0000E94DC0C7093490660934806C090870810
:1004F000D0908808E0908908F0908A08B801012E11
:10050000000C880B990B0E94C50B2B013C016091DC
:10051000020170910301072E000C880B990B0E94B9
:10052000C50B4B015C018091480690914906988B60
:100530008F87A3019201C701B6010E942A0B698728
:100540007A878B879C87EF85F889BF01FF0F880B1F
:10055000990B0E94C50B9B01AC0169857A858B853F
:100560009C850E94C10A9B01AC0160E070E080E8BC
:100570009FE30E94C10AA50194010E94790C0E9488
:10058000920B7093430660934206C801B1010E942A
:10059000DC0C70935B0860935A0820915A083091E4
:1005A0005B083A872987A7019601C301B2010E941F
:1005B0002A0B6B017C01E985FA85BF01FF0F880BCF
:1005C000990B0E94C50B9B01AC01C701B601D9D79D
:1005D0009B01AC0160E070E080E89FE3D2D7A50109
:1005E00094010E94790C0E94920B709341066093D3
:1005F000400620E030E040E450E469817A818B815C
:100600009C810E942A0B4B015C0129813A814B811C
:100610005C8160E070E080E490E4B3D720E030E0FB
:100620004EEF52E40E94790C20E030E040E450E4C8
:100630000E942A0B2B013C0120E030E040E450E412
:100640006D817E818F8198850E942A0B20E030E0A9
:100650004EEF52E40E94790C69837A838B839C83EA
:100660000D851E852AE536E00F2EFAE5EF2EF7E020
:10067000FF2EF02DDD24DA943E832D83F801619165
:100680008F0170E080E090E00E94C50BA50194010D
:100690000E94790CA301920175D729813A814B817F
:1006A0005C816FD70E94920B862F972F8F3F910509
:1006B00029F024F0ED81FE81D08209C0992324F431
:1006C000ED81FE81108203C0ED81FE8160832D816A
:1006D0003E812F5F3F4F3E832D832E153F0571F6E0
:1006E00060960FB6F894DEBF0FBECDBFDF91CF91FD
:1006F0001F910F91FF90EF90DF90CF90BF90AF9040
:100700009F908F907F906F905F904F903F902F9031
:1007100008951F920F920FB60F9211248F939F93FB
:1007200081E090E090933B0680933A069F918F91F1
:100730000F900FBE0F901F90189584EA8093BC0015
:1007400081E197E2ECEBF0E002C0019789F02081B3
:100750002223DCF78091B900887F883061F02091F6
:10076000B900287F81E090E0203139F480E00895DD
:1007700083E090E0089580E090E00895660F860F92
:10078000911D8093BB0084E88093BC0081E197E2D7
:10079000ECEBF0E002C0019789F020812223DCF726
:1007A0008091B900887F883161F02091B900287F5D
:1007B00081E090E0203439F480E0089583E090E017
:1007C000089580E090E008958093BB0084E88093D2
:1007D000BC00ECEBF0E006C02F5F3F4F213187E219
:1007E000380764F480818823BCF72091B900287F02
:1007F00081E090E0283221F480E0089583E090E0E9
:100800000895882331F0ECEBF0E080818F7B8083CA
:1008100005C0ECEBF0E0808180648083ECEBF0E0DD
:1008200080818068808381E197E202C0019781F036
:1008300020812223DCF78091B900887F803529F060
:100840008091B900887F883529F48091BB00089594
:1008500080E0089580E00895CF93C82F6EDF03975E
:1008600009F4D2C06C2F80E090E088DF81E590E051
:10087000ABDF84E98093BC0060DF6C2F80E090E008
:100880007DDF8AEA90E0A0DF58DF6C2F81E090E006
:1008900075DF80E0B6DF90E090933D0680933C06E4
:1008A0006AE070E00E94DC0C90E3960FF894E4E9B3
:1008B000F8E021818081281305C0E1ECF0E080811F
:1008C00080628083E4E9F8E041818081A82FB0E074
:1008D000228130E021503109A217B30711F08F5F58
:1008E00001C080E0481301C0FFCFE4E9F8E0808157
:1008F000A381B481A80FB11D9C938081482F50E043
:10090000228130E0215031094217530711F08F5FE7
:1009100001C080E0E4E9F8E08083789480913C06AF
:10092000F89421819081291305C0E1ECF0E09081D9
:1009300090629083E4E9F8E041819081A92FB0E0D2
:10094000228130E021503109A217B30711F09F5FD7
:1009500001C090E0491301C0FFCFE4E9F8E09081C5
:10096000A381B481A90FB11D962F990F292F220FB2
:10097000220F920F805D891B8C938081482F50E05D
:10098000228130E0215031094217530711F08F5F67
:1009900001C080E0E4E9F8E080837894F8949181E4
:1009A0008081981305C0E1ECF0E080818062808353
:1009B000E4E9F8E091818081482F50E0228130E025
:1009C000215031094217530711F08F5F01C080E0B9
:1009D000981301C0FFCFE4E9F8E08081A381B481DE
:1009E000A80FB11D8AE08C938081482F50E02281AE
:1009F00030E0215031094217530711F08F5F01C0D9
:100A000080E0809394087894CF9108951092B90073
:100A100088E48093B8000895E1E8F0E080818D607B
:100A20008083109285001092840088E99AE3909365
:100A3000890080938800EFE6F0E080818260808307
:100A400085B5826085BD84B5826084BD16BC8CE2AC
:100A500087BDEEE6F0E08081826080830895CF92CA
:100A6000DF92EF92FF920F931F938EEA90E09093A4
:100A700092088093910880E090E8AEE2B3E480931E
:100A8000870890938808A0938908B0938A088AB150
:100A90008C6F8AB987B18F6087B984B18F6384B94D
:100AA000E0E1F1E0E284F384008511852481358161
:100AB000468157816081718182819381CC24C39466
:100AC000D12CA3DBE4E0F1E0E284F384008511851E
:100AD0002481358146815781608171818281938132
:100AE0006894CC24C1F8D12C90DB1F910F91FF901A
:100AF000EF90DF90CF900895CF93DF93AEE2B6E012
:100B000080E090E0ED0102C01D920196FE0101908F
:100B10000020E9F73197EE52F6408E179F07A0F3B9
:100B200010922D0610922C06DF91CF910895CF924E
:100B3000DF92EF92FF920F931F93CF93DF938091F9
:100B40002A0690912B06019709F042C010922B06BD
:100B500010922A06ACE1B6E060E276E0E4E9F8E063
:100B600041EC50E0F12CED90F89491818081981344
:100B700004C0EA0188818062888391818081082F86
:100B800010E0228130E0215031090217130711F0E3
:100B90008F5F01C08F2D981301C0FFCF208183810B
:100BA0009481820F911DEC01E8828081082F10E072
:100BB000228130E0215031090217130711F08F5FB5
:100BC00001C08F2D808378946A177B0761F694DFCC
:100BD0008091280690912906019709F077C08091AD
:100BE000180190911901803797413CF480910C01D4
:100BF00090910D0180379741CCF087E287BD84EC5E
:100C000090E0909392088093910880E090E0A4E4B3
:100C1000B3E48093870890938808A0938908B093E1
:100C20008A0810920101109200017CC08CE287BDFD
:100C30008EEA90E0909392088093910880E090E88B
:100C4000AEE2B3E48093870890938808A093890864
:100C5000B0938A0881E090E09093010180930001B5
:100C600061C0ED90F89491818081981304C0EA01ED
:100C700088818062888391818081082F10E02281A1
:100C800030E0215031090217130711F08F5F01C0C6
:100C90008F2D981301C0FFCF208183819481820F13
:100CA000911DEC01E8828081082F10E0228130E064
:100CB000215031090217130711F08F5F01C08F2DEA
:100CC000808378946A177B0761F616DF8091260689
:100CD00090912706019709F058C0AEE2B6E080E097
:100CE00090E0ED0102C01D920196FE0101900020EE
:100CF000E9F73197EE52F6408E179F07A0F3EEE624
:100D0000F0E0808182608083EFE6F0E080818260A5
:100D1000808310922D0610922C06109227061092B6
:100D2000260633C0E0E1F1E0E284F384008511851A
:100D300024813581468157816081718182819381CF
:100D4000CC24C394D12C61DAE4E0F1E0E284F384B2
:100D500000851185248135814681578160817181AB
:100D6000828193816894CC24C1F8D12C4EDA109200
:100D7000290610922806A1E2B6E065E276E0E4E9F1
:100D8000F8E041EC50E0F12C6CCFDF91CF911F9156
:100D90000F91FF90EF90DF90CF900895CF93DF9366
:100DA000CDB7DEB7A2970FB6F894DEBF0FBECDBFAA
:100DB000F8941092C50087E68093C40088E9809378
:100DC000C10086E08093C2001D8A1E8A84E18F8B59
:100DD0002FE538E0398F288F95E0FE017596DE010A
:100DE000509601900D929A95E1F795E0FE0170966C
:100DF000DE011B9601900D929A95E1F795E0FE01B8
:100E00003B96A4E9B8E001900D929A95E1F71D8A0E
:100E10001E8A8F8B83E798E0998F888F85E0FE018B
:100E20007596DE01169601900D928A95E1F785E0A0
:100E3000FE013696DE01119601900D928A95E1F73A
:100E400085E0FE013196ACE8B8E001900D928A95FC
:100E5000E1F705DEE1DDDADD78940F2EFCE8EF2E18
:100E6000F8E0FF2EF02DCE01459698A38F8F0F2E20
:100E7000FEE22F2EF6E03F2EF02D9F8D99A3A8A124
:100E8000AAA355DE01E010E00F2EF4E0CF2EF1E032
:100E9000DF2EF02D6AC1EEE6F0E080818D7F808349
:100EA000AFE6B0E08C918D7F8C93F70191818081CA
:100EB000981301C0FFCFD70181810380F481E02D19
:100EC000E80FF11D308111962C911197422F50E0BF
:100ED00012968C9190E001974817590711F02F5FF7
:100EE00001C020E0F701218330935C08332309F42B
:100EF0003CC180912C0690912D06FC01E25DF94FDA
:100F00003083019690932D0680932C06313209F0A0
:100F100026C1AF8DB8A1E6E01D92EA95E9F7D101AF
:100F200014968C9114978D8B15968C9115978E8BAA
:100F300016968C9116978F8B17968C911797888F92
:100F400018968C91898F4AE050E0BE01635E7F4F16
:100F500089A19AA19BD62B013C01BE01655E7F4F02
:100F600089A19AA150D54B015C01F10180818134A6
:100F7000C9F581818D3409F0EDC020E030E0A90190
:100F8000C501B401B2D488231CF120E030E040E276
:100F900051E4C501B4015AD31816D4F0D101129608
:100FA0008C91813339F4E0E1F1E080829182A28278
:100FB000B38213C0823339F4D6018D929D92AD92E3
:100FC000BC9213970AC010932B0600932A06CDC03B
:100FD00010932B0600932A06C8C01093290600938D
:100FE0002806C3C08F3409F03CC0F10181818634EA
:100FF00009F0B0C020E030E040E251ECC501B4019E
:1010000074D4882324F120E030E040E251E4C501AB
:10101000B4011CD31816DCF0D10112968C918133E7
:1010200049F48092140190921501A0921601B09299
:10103000170112C0823331F4F60184829582A682B0
:10104000B7820AC010932B0600932A068EC0109315
:101050002B0600932A0689C01093290600932806C0
:1010600084C0863449F58181823509F073C0C2019C
:10107000019780319742B0F4F1018281813329F4E4
:10108000509219014092180112C0823331F4D601F6
:1010900019965C924E9218970AC010932B060093F3
:1010A0002A0663C010932B0600932A065EC0109395
:1010B00029060093280659C0873541F5F101818141
:1010C000813409F047C0C20101970597A8F48281D5
:1010D000813329F450921B0140921A0112C08233CD
:1010E00031F4D6011B965C924E921A970AC0109367
:1010F0002B0600932A0639C010932B0600932A066C
:1011000034C010932906009328062FC0833411F5AC
:10111000F10181818F34F1F482818E34D9F483819D
:101120008435C1F484818934A9F485818E3491F4A5
:101130008681853579F48781853461F480858534AD
:1011400049F410932906009328061093270600936C
:10115000260605C010932B0600932A0606C08FE3CF
:101160009CE90197F1F700C00000D70111969C910E
:1011700011978C9198138FCE80913A0690913B06EF
:10118000019709F07ECE80910001909101010197B5
:1011900009F077CE10923B0610923A0688E45CDBA9
:1011A000EFE3FCE93197F1F700C000006ACE1F922F
:1011B0000F920FB60F9211242F933F938F939F930B
:1011C000EF93FF9380915506909156060196909368
:1011D00056068093550680913E0690913F060196F3
:1011E00090933F0680933E06809157069091580653
:1011F000892B09F458C020915306309154068091F0
:1012000050069091510682179307F4F020915506ED
:101210003091560680915706909158062817390745
:101220008CF1809159068F5F809359068091530607
:101230009091540601969093540680935306109211
:101240005606109255061EC080915706909158067A
:10125000209155063091560601962817390794F0CB
:10126000809159068F5F8093590680915306909123
:101270005406019690935406809353061092560696
:101280001092550620915306309154068091020128
:10129000909103012817390709F04CC010925406A9
:1012A0001092530647C080915D0890915E08892B8B
:1012B00009F440C0209153063091540680914E06A7
:1012C00090914F06821793079CF080915D08909152
:1012D0005E0890915906890F8093590680915306B4
:1012E000909154060196909354068093530613C030
:1012F00080915D0890915E08909159069F5F890FDB
:1013000080935906809153069091540601969093CC
:1013100054068093530620915306309154068091D1
:101320000201909103012817390721F41092540605
:10133000109253068091460690914706019690932D
:101340004706809346068091480690914906892B6E
:1013500009F458C020914406309145068091420618
:101360009091430682179307F4F02091460630913E
:1013700047068091480690914906281739078CF155
:1013800080914D068F5F80934D0680914406909129
:1013900045060196909345068093440610924706B1
:1013A000109246061EC080914806909149062091F1
:1013B00046063091470601962817390794F0809128
:1013C0004D068F5F80934D068091440690914506AF
:1013D000019690934506809344061092470610921A
:1013E0004606209144063091450680910201909175
:1013F00003012817390709F052C0109245061092D0
:1014000044064DC080915A0890915B08892B09F4DD
:1014100046C0209144063091450680914006909147
:1014200041068217930734F480915A0890915B0823
:1014300089979CF080915A0890915B0890914D0695
:10144000890F80934D068091440690914506019640
:10145000909345068093440613C080915A0890915A
:101460005B0890914D069F5F890F80934D06809198
:101470004406909145060196909345068093440654
:10148000209144063091450680910201909103011C
:101490002817390721F41092450610924406E0916E
:1014A0005906F0E0E65AF84F80818093520685B1E4
:1014B00080938B0880918B08807C80938B0880912F
:1014C000520690918B0886958695892B80938B0880
:1014D00088B18093930880919308837F80939308C9
:1014E00080915206909193088370880F880F892B02
:1014F00080939308E0914D06F0E0E65AF94F808121
:1015000080934A068BB190E090934C0680934B06F3
:1015100080914B0690914C068370992790934C06CE
:1015200080934B0620914A0680914B0690914C0681
:101530002C7F822B90934C0680934B0680919308CE
:101540008C7F8093930880914A06909193088370D2
:10155000892B8093930880918B0885B9809193089B
:1015600088B980914B0690914C068BB9FF91EF9111
:101570009F918F913F912F910F900FBE0F901F90D1
:1015800018955058BB27AA270ED075C166D130F0E8
:101590006BD120F031F49F3F11F41EF45BC10EF4C7
:1015A000E095E7FB51C1E92F77D180F3BA176207C5
:1015B00073078407950718F071F49EF58FC10EF438
:1015C000E0950B2EBA2FA02D0B01B90190010C0153
:1015D000CA01A0011124FF27591B99F0593F50F46B
:1015E000503E68F11A16F040A22F232F342F4427C3
:1015F000585FF3CF469537952795A795F0405395BB
:10160000C9F77EF41F16BA0B620B730B840BBAF08A
:101610009150A1F0FF0FBB1F661F771F881FC2F7F5
:101620000EC0BA0F621F731F841F48F48795779509
:101630006795B795F7959E3F08F0B3CF9395880FC0
:1016400008F09927EE0F979587950895D9D008F45B
:1016500081E008950CD00FC107D140F0FED030F0EA
:1016600021F45F3F19F0F0C0511139C1F3C014D11A
:1016700098F39923C9F35523B1F3951B550BBB2759
:10168000AA2762177307840738F09F5F5F4F220F06
:10169000331F441FAA1FA9F333D00E2E3AF0E0E8FF
:1016A00030D091505040E695001CCAF729D0FE2F4B
:1016B00027D0660F771F881FBB1F261737074807DD
:1016C000AB07B0E809F0BB0B802DBF01FF27935893
:1016D0005F4F2AF09E3F510568F0B6C000C15F3FE2
:1016E000ECF3983EDCF3869577956795B795F7957B
:1016F0009F5FC9F7880F911D9695879597F9089573
:10170000E1E0660F771F881FBB1F6217730784070E
:10171000BA0720F0621B730B840BBA0BEE1F88F71D
:10172000E095089504D06894B111D9C00895BCD053
:1017300088F09F5790F0B92F9927B751A0F0D1F0BA
:10174000660F771F881F991F1AF0BA95C9F712C044
:10175000B13081F0C3D0B1E00895C0C0672F782FB9
:101760008827B85F39F0B93FCCF3869577956795B0
:10177000B395D9F73EF490958095709561957F4F1C
:101780008F4F9F4F0895E89409C097FB3EF49095C2
:101790008095709561957F4F8F4F9F4F9923A9F04A
:1017A000F92F96E9BB279395F695879577956795D9
:1017B000B795F111F8CFFAF4BB0F11F460FF1BC01D
:1017C0006F5F7F4F8F4F9F4F16C0882311F096E9B0
:1017D00011C0772321F09EE8872F762F05C066235E
:1017E00071F096E8862F70E060E02AF09A95660F17
:1017F000771F881FDAF7880F9695879597F90895D0
:10180000990F0008550FAA0BE0E8FEEF1616170611
:10181000E807F907C0F012161306E407F50798F079
:10182000621B730B840B950B39F40A2661F0232B92
:10183000242B252B21F408950A2609F4A140A6950E
:101840008FEF811D811D089597F99F6780E870E0F3
:1018500060E008959FEF80EC089500240A94161626
:10186000170618060906089500240A94121613068E
:10187000140605060895092E0394000C11F488231C
:1018800052F0BB0F40F4BF2B11F460FF04C06F5F38
:101890007F4F8F4F9F4F089557FD9058440F551F0E
:1018A00059F05F3F71F04795880F97FB991F61F0E2
:1018B0009F3F79F087950895121613061406551F59
:1018C000F2CF4695F1DF08C0161617061806991FC5
:1018D000F1CF86957105610508940895E894BB27BA
:1018E00066277727CB0197F908958ADF08F48FEFF1
:1018F00008950BD0C0CFB1DF28F0B6DF18F09523E4
:1019000009F0A2CFA7CF1124EACFC6DFA0F3959F9D
:10191000D1F3950F50E0551F629FF001729FBB27D6
:10192000F00DB11D639FAA27F00DB11DAA1F649F82
:101930006627B00DA11D661F829F2227B00DA11D35
:10194000621F739FB00DA11D621F839FA00D611DBB
:10195000221F749F3327A00D611D231F849F600DDC
:10196000211D822F762F6A2F11249F5750408AF015
:10197000E1F088234AF0EE0FFF1FBB1F661F771FA1
:10198000881F91505040A9F79E3F510570F05CCFE1
:10199000A6CF5F3FECF3983EDCF38695779567958D
:1019A000B795F795E7959F5FC1F7FE2B880F911DBF
:1019B0009695879597F9089597FB072E16F400944E
:1019C00006D077FD08D00BD007FC05D03EF49095EB
:1019D00081959F4F0895709561957F4F0895AA1B3B
:1019E000BB1B51E107C0AA1FBB1FA617B70710F00A
:1019F000A61BB70B881F991F5A95A9F7809590953C
:101A0000BC01CD010895A0E0B0E0E8E0FDE0B3C284
:101A1000EC016B016115710519F0FB019183808365
:101A20007E01FFEFEF1AFF0A0881802F90E03FD27E
:101A3000892B11F0E701F4CF0D3239F47E0182E0F9
:101A4000E80EF11C098111E008C00B3229F47E0177
:101A500092E0E90EF11C098110E0E701219743E0D3
:101A600050E060E770E0CE012AD2892BB9F42396CA
:101A700045E050E06BE670E0CE0121D2892B09F4FD
:101A80002596C114D10419F0F601D183C083111138
:101A9000F0C060E070E080E89FE7F4C043E050E011
:101AA00068E670E0CE010BD2892B59F4C114D10441
:101AB00009F4E4C0F2E0EF0EF11CF601F182E082DD
:101AC000DDC020E030E0A901C0E0D0E0F70180ED0A
:101AD000A82EA00E89E08A1528F1912F9260B92EC8
:101AE000812F887012FF04C0811123C0219621C06C
:101AF00081112197A5E0B0E02ED2DC01CB01880F47
:101B0000991FAA1FBB1F9C01AD012A0D311D411D4C
:101B1000511D283989E93807480789E1580748F0F5
:101B2000166006C09EEFA9120AC013FD40C01860DF
:101B3000B12E8FEFE81AF80A00811B2DC7CF802F36
:101B40008F7D8534A1F580818D3211F4106106C03E
:101B50008B3221F0319661E070E004C081813296D1
:101B600062E070E080538A3018F0E61BF70B1FC06C
:101B700060E070E060389CE079075CF4DB01AA0F5C
:101B8000BB1FAA0FBB1F6A0F7B1F660F771F680F53
:101B9000711D3196DF0111978C9180538A3050F37B
:101BA00014FF03C0719561957109C60FD71F11FF0E
:101BB00008C0C114D10429F0CF010197F601918327
:101BC0008083CA01B901DFDD212F2370233019F092
:101BD0004B015C0106C04B015C01B7FAB094B7F849
:101BE000B09420E030E0A901C501B4012FDD8823C5
:101BF00009F43CC0D7FF06C0D195C195D10907E8CB
:101C000010E002C00FE910E06801F8E1CF1AD10836
:101C100090E2E92EF12CCE15DF056CF0F80125914C
:101C2000359145915491C501B40163DE4B015C01CE
:101C3000CE19DF09F0CF04501109F594E7940C1583
:101C40001D0549F78A2D880F8B2D881F8F3F41F086
:101C500020E030E0A901C501B401F8DC811106C023
:101C600082E290E090939A0880939908C501B401AC
:101C700009C060E070E080E89FEF04C060E070E0C1
:101C800080EC9FE7CDB7DEB7ECE091C1A0E0B0E01B
:101C9000EBE4FEE06BC15C016B017A01611571053B
:101CA00019F0FB0191838083E114F10429F0C7014D
:101CB0000297839708F0E2C0E5012196F5011081B3
:101CC000812F90E0F4D0892B11F05E01F5CF1D3209
:101CD00029F42196F501118101E007C01B3221F49E
:101CE000E5012296F501118100E0E114F10409F10A
:101CF000F0E1EF16F10429F43EC010E3E114F10421
:101D000021F128E0E216F10401F154F4E2E0EE16CC
:101D1000F10421F5812C912CA12CB0E4BB2E3DC007
:101D2000FAE0EF16F10439F020E1E216F104B1F423
:101D30002FC0103311F1FAE0EF2EF12CACEC8A2E0B
:101D4000982CA82CACE0BA2E28C078E0E72EF12C15
:101D5000812C912CA12CE0E1BE2E1FC060E070E030
:101D600080E090E897010F2C000C440B550BD1D06C
:101D700049015A0112C0103359F488818F7D88358A
:101D800009F0BBCF19812296026080E1E82EF12C88
:101D9000812C912CA12C68E0B62E40E060E070E030
:101DA000CB0127010F2C000C66087708FE0150EDCF
:101DB000352E310E29E0231570F42FEB210F2A3137
:101DC00018F439EC332E06C02FE9210F2A3110F513
:101DD00029EA322E310E232D30E02E153F05D4F4A2
:101DE00047FD15C086169706A806B90668F0A30138
:101DF000920180D0630D711D811D911D61307105AF
:101E0000810520E8920710F04FEF01C041E02196D4
:101E10001081CCCF202F2170C114D10471F0442344
:101E200029F02197F601D183C08307C001FF19C0B3
:101E30002297F601D183C08314C047FF12C022232A
:101E400029F060E070E080E090E804C06FEF7FEF81
:101E50008FEF9FE722E230E030939A0820939908B1
:101E600009C0222381F090958095709561957F4FF0
:101E70008F4F9F4F462F372F282F12C040E030E062
:101E800020E090E00DC097FFF5CF82E290E09093C4
:101E90009A08809399086FEF7FEF8FEF9FE7EACF63
:101EA000642F732F822FCDB7DEB7E1E17BC0911194
:101EB0001EC0803219F089508550D0F70895FB017B
:101EC000DC014150504088F08D9181341CF08B35FD
:101ED0000CF4805E659161341CF06B350CF4605E2F
:101EE000861B611171F3990B0895881BFCCF99270C
:101EF00088270895DB018F939F932DD0BF91AF91D9
:101F0000A29F800D911DA39F900DB29F900D112453
:101F10000895A1E21A2EAA1BBB1BFD010DC0AA1F2A
:101F2000BB1FEE1FFF1FA217B307E407F50720F042
:101F3000A21BB30BE40BF50B661F771F881F991FBD
:101F40001A9469F760957095809590959B01AC0106
:101F5000BD01CF01089540D0A59F900DB49F900D75
:101F6000A49F800D911D112408952F923F924F92AE
:101F70005F926F927F928F929F92AF92BF92CF9219
:101F8000DF92EF92FF920F931F93CF93DF93CDB722
:101F9000DEB7CA1BDB0B0FB6F894DEBF0FBECDBF9A
:101FA00009942A88398848885F846E847D848C846B
:101FB0009B84AA84B984C884DF80EE80FD800C8174
:101FC0001B81AA81B981CE0FD11D0FB6F894DEBF57
:101FD0000FBECDBFED010895A29FB001B39FC00118
:101FE000A39F700D811D1124911DB29F700D811D45
:0A1FF0001124911D0895F894FFCF0D
:101FFA0001000F000000C03F00000000C8000100FF
:10200A000000C03F0000000064000100FFFEFDFC6C
:10201A00FBFAF9F8F7F6F5F4F3F2F1F0EFEEEDEC7E
:10202A00EBEAE9E8E7E6E5E4E3E2E1E0DFDEDDDC6E
:10203A00DBDAD9D8D7D6D5D4D3D2D1D0CFCECDCC5E
:10204A00CBCAC9C8C7C6C5C4C3C2C1C0BFBEBDBC4E
:10205A00BBBAB9B8B7B6B5B4B3B2B1B0AFAEADAC3E
:10206A00ABAAA9A8A7A6A5A4A3A2A1A09F9E9D9C2E
:10207A009B9A999897969594939291908F8E8D8C1E
:10208A008B8A898887868584838281807F7E7D7C0E
:10209A007B7A797877767574737271706F6E6D6CFE
:1020AA006B6A696867666564636261605F5E5D5CEE
:1020BA005B5A595857565554535251504F4E4D4CDE
:1020CA004B4A494847464544434241403F3E3D3CCE
:1020DA003B3A393837363534333231302F2E2D2CBE
:1020EA002B2A292827262524232221201F1E1D1CAE
:1020FA001B1A191817161514131211100F0E0D0C9E
:10210A000B0A09080706050403407DBFBF7D40038B
:10211A000405060708090A0B0C0D0E0F10111213FD
:10212A001415161718191A1B1C1D1E1F20212223ED
:10213A002425262728292A2B2C2D2E2F30313233DD
:10214A003435363738393A3B3C3D3E3F40414243CD
:10215A004445464748494A4B4C4D4E4F50515253BD
:10216A005455565758595A5B5C5D5E5F60616263AD
:10217A006465666768696A6B6C6D6E6F707172739D
:10218A007475767778797A7B7C7D7E7F808182838D
:10219A008485868788898A8B8C8D8E8F909192937D
:1021AA009495969798999A9B9C9D9E9FA0A1A2A36D
:1021BA00A4A5A6A7A8A9AAABACADAEAFB0B1B2B35D
:1021CA00B4B5B6B7B8B9BABBBCBDBEBFC0C1C2C34D
:1021DA00C4C5C6C7C8C9CACBCCCDCECFD0D1D2D33D
:1021EA00D4D5D6D7D8D9DADBDCDDDEDFE0E1E2E32D
:1021FA00E4E5E6E7E8E9EAEBECEDEEEFF0F1F2F31D
:10220A00F4F5F6F7F8F9FAFBFCFDFEFF0103050702
:10221A00090B0D0F11131517191B1D1F2123252734
:10222A00292B2D2F31333537393B3D3F4143454724
:10223A00494B4D4F51535557595B5D5F6163656714
:10224A00696B6D6F71737577797B7D7F8183858704
:10225A00898B8D8F91939597999B9D9FA1A3A5A7F4
:10226A00A9ABADAFB1B3B5B7B9BBBDBFC1C3C5C7E4
:10227A00C9CBCDCFD1D3D5D7D9DBDDDFE1E3E5E7D4
:10228A00E9EBEDEFF1F3F5F7F9FBFDFFFFFDFBF9E4
:10229A00F7F5F3F1EFEDEBE9E7E5E3E1DFDDDBD9B4
:1022AA00D7D5D3D1CFCDCBC9C7C5C3C1BFBDBBB9A4
:1022BA00B7B5B3B1AFADABA9A7A5A3A19F9D9B9994
:1022CA00979593918F8D8B89878583817F7D7B7984
:1022DA00777573716F6D6B69676563615F5D5B5974
:1022EA00575553514F4D4B49474543413F3D3B3964
:1022FA00373533312F2D2B29272523211F1D1B1954
:10230A00171513110F0D0B0907050301FFFFFFFF37
:10231A00FFFFFFFFFFFFFFFFFFFFFFFFFFFFFFFFC3
:10232A00FFFFFFFFFFFFFFFFFFFFFFFFFFFFFFFFB3
:10233A00FFFFFFFFFFFFFFFFFFFFFFFFFFFFFFFFA3
:10234A00FFFFFFFFFFFFFFFFFFFFFFFFFFFFFFFF93
:10235A00FFFFFFFFFFFFFFFFFFFFFFFFFFFFFFFF83
:10236A00FFFFFFFFFFFFFFFFFFFFFFFFFFFFFFFF73
:10237A00FFFFFFFFFFFFFFFFFFFFFFFFFFFFFFFF63
:10238A00FFFFFFFFFFFFFFFFFFFFFFFF7D000000D2
:10239A000000000000000000000000000000000033
:1023AA000000000000000000000000000000000023
:1023BA000000000000000000000000000000000013
:1023CA000000000000000000000000000000000003
:1023DA0000000000000000000000000000000000F3
:1023EA0000000000000000000000000000000000E3
:1023FA0000000000000000000000000000000000D3
:10240A0000000000000000000000007D8083868933
:10241A008C909396999C9FA2A5A8ABAEB1B3B6B97E
:10242A00BCBFC1C4C7C9CCCED1D3D5D8DADCDEE0B3
:10243A00E2E4E6E8EAEBEDEFF0F1F3F4F5F6F8F9A9
:10244A00FAFAFBFCFDFDFEFEFEFFFFFFFFFFFFFFAA
:10245A00FEFEFEFDFDFCFBFAFAF9F8F6F5F4F3F1DF
:10246A00F0EFEDEBEAE8E6E4E2E0DEDCDAD8D5D339
:10247A00D1CECCC9C7C4C1BFBCB9B6B3B1AEABA883
:10248A00A5A29F9C999693908C898683807D7A7762
:10249A0074706D6A6764615E5B5855524F4D4A4766
:1024AA0044413F3C393734322F2D2B282624222011
:1024BA001E1C1A1816151311100F0D0C0B0A0807FB
:1024CA0006060504030302020201010101010101DA
:1024DA0002020203030405060607080A0B0C0D0F85
:1024EA001011131516181A1C1E20222426282B2D0B
:1024FA002F323437393C3F4144474A4D4F525558A1
:10250A005B5E6164676A6D7074777A7D4552520AC0
:06251A000041434B0A00E2
:00000001FF
